{
  "_format": "hh-sol-artifact-1",
  "contractName": "MembershipManager",
  "sourceName": "contracts/MembershipManager.sol",
  "abi": [
    {
      "inputs": [
        {
          "internalType": "address",
          "name": "admin",
          "type": "address"
        },
        {
          "internalType": "address",
          "name": "treasury",
          "type": "address"
        },
        {
          "internalType": "address",
          "name": "poolAddress",
          "type": "address"
        }
      ],
      "stateMutability": "nonpayable",
      "type": "constructor"
    },
    {
      "inputs": [],
      "name": "AccessControlBadConfirmation",
      "type": "error"
    },
    {
      "inputs": [
        {
          "internalType": "address",
          "name": "account",
          "type": "address"
        },
        {
          "internalType": "bytes32",
          "name": "neededRole",
          "type": "bytes32"
        }
      ],
      "name": "AccessControlUnauthorizedAccount",
      "type": "error"
    },
    {
      "anonymous": false,
      "inputs": [
        {
          "indexed": true,
          "internalType": "address",
          "name": "provider",
          "type": "address"
        }
      ],
      "name": "HealthcareProviderApproved",
      "type": "event"
    },
    {
      "anonymous": false,
      "inputs": [
        {
          "indexed": true,
          "internalType": "address",
          "name": "provider",
          "type": "address"
        }
      ],
      "name": "HealthcareProviderRegistered",
      "type": "event"
    },
    {
      "anonymous": false,
      "inputs": [
        {
          "indexed": true,
          "internalType": "address",
          "name": "provider",
          "type": "address"
        }
      ],
      "name": "HealthcareProviderRejected",
      "type": "event"
    },
    {
      "anonymous": false,
      "inputs": [
        {
          "indexed": true,
          "internalType": "address",
          "name": "participant",
          "type": "address"
        },
        {
          "indexed": false,
          "internalType": "enum MembershipManager.Tier",
          "name": "tier",
          "type": "uint8"
        },
        {
          "indexed": false,
          "internalType": "uint256",
          "name": "amount",
          "type": "uint256"
        }
      ],
      "name": "MembershipPaid",
      "type": "event"
    },
    {
      "anonymous": false,
      "inputs": [
        {
          "indexed": true,
          "internalType": "address",
          "name": "participant",
          "type": "address"
        },
        {
          "indexed": false,
          "internalType": "bool",
          "name": "isActive",
          "type": "bool"
        }
      ],
      "name": "MembershipStatusUpdated",
      "type": "event"
    },
    {
      "anonymous": false,
      "inputs": [
        {
          "indexed": true,
          "internalType": "address",
          "name": "participant",
          "type": "address"
        },
        {
          "indexed": false,
          "internalType": "enum MembershipManager.Tier",
          "name": "tier",
          "type": "uint8"
        }
      ],
      "name": "ParticipantRegistered",
      "type": "event"
    },
    {
      "anonymous": false,
      "inputs": [
        {
          "indexed": true,
          "internalType": "bytes32",
          "name": "role",
          "type": "bytes32"
        },
        {
          "indexed": true,
          "internalType": "bytes32",
          "name": "previousAdminRole",
          "type": "bytes32"
        },
        {
          "indexed": true,
          "internalType": "bytes32",
          "name": "newAdminRole",
          "type": "bytes32"
        }
      ],
      "name": "RoleAdminChanged",
      "type": "event"
    },
    {
      "anonymous": false,
      "inputs": [
        {
          "indexed": true,
          "internalType": "bytes32",
          "name": "role",
          "type": "bytes32"
        },
        {
          "indexed": true,
          "internalType": "address",
          "name": "account",
          "type": "address"
        },
        {
          "indexed": true,
          "internalType": "address",
          "name": "sender",
          "type": "address"
        }
      ],
      "name": "RoleGranted",
      "type": "event"
    },
    {
      "anonymous": false,
      "inputs": [
        {
          "indexed": true,
          "internalType": "bytes32",
          "name": "role",
          "type": "bytes32"
        },
        {
          "indexed": true,
          "internalType": "address",
          "name": "account",
          "type": "address"
        },
        {
          "indexed": true,
          "internalType": "address",
          "name": "sender",
          "type": "address"
        }
      ],
      "name": "RoleRevoked",
      "type": "event"
    },
    {
      "inputs": [],
      "name": "ADMIN_ROLE",
      "outputs": [
        {
          "internalType": "bytes32",
          "name": "",
          "type": "bytes32"
        }
      ],
      "stateMutability": "view",
      "type": "function"
    },
    {
      "inputs": [],
      "name": "CLAIM_MANAGER_ROLE",
      "outputs": [
        {
          "internalType": "bytes32",
          "name": "",
          "type": "bytes32"
        }
      ],
      "stateMutability": "view",
      "type": "function"
    },
    {
      "inputs": [],
      "name": "DEFAULT_ADMIN_ROLE",
      "outputs": [
        {
          "internalType": "bytes32",
          "name": "",
          "type": "bytes32"
        }
      ],
      "stateMutability": "view",
      "type": "function"
    },
    {
      "inputs": [],
      "name": "HOSPITAL_ROLE",
      "outputs": [
        {
          "internalType": "bytes32",
          "name": "",
          "type": "bytes32"
        }
      ],
      "stateMutability": "view",
      "type": "function"
    },
    {
      "inputs": [],
      "name": "PAYMENT_GRACE_PERIOD",
      "outputs": [
        {
          "internalType": "uint256",
          "name": "",
          "type": "uint256"
        }
      ],
      "stateMutability": "view",
      "type": "function"
    },
    {
      "inputs": [],
      "name": "adminTreasury",
      "outputs": [
        {
          "internalType": "address",
          "name": "",
          "type": "address"
        }
      ],
      "stateMutability": "view",
      "type": "function"
    },
    {
      "inputs": [
        {
          "internalType": "address",
          "name": "provider",
          "type": "address"
        }
      ],
      "name": "approveHealthcareProvider",
      "outputs": [],
      "stateMutability": "nonpayable",
      "type": "function"
    },
    {
      "inputs": [
        {
          "internalType": "enum MembershipManager.Tier",
          "name": "newTier",
          "type": "uint8"
        }
      ],
      "name": "changeTier",
      "outputs": [],
      "stateMutability": "payable",
      "type": "function"
    },
    {
      "inputs": [
        {
          "internalType": "bytes32",
          "name": "role",
          "type": "bytes32"
        }
      ],
      "name": "getRoleAdmin",
      "outputs": [
        {
          "internalType": "bytes32",
          "name": "",
          "type": "bytes32"
        }
      ],
      "stateMutability": "view",
      "type": "function"
    },
    {
      "inputs": [
        {
          "internalType": "bytes32",
          "name": "role",
          "type": "bytes32"
        },
        {
          "internalType": "address",
          "name": "account",
          "type": "address"
        }
      ],
      "name": "grantRole",
      "outputs": [],
      "stateMutability": "nonpayable",
      "type": "function"
    },
    {
      "inputs": [
        {
          "internalType": "bytes32",
          "name": "role",
          "type": "bytes32"
        },
        {
          "internalType": "address",
          "name": "account",
          "type": "address"
        }
      ],
      "name": "hasRole",
      "outputs": [
        {
          "internalType": "bool",
          "name": "",
          "type": "bool"
        }
      ],
      "stateMutability": "view",
      "type": "function"
    },
    {
      "inputs": [],
      "name": "healthRiskPool",
      "outputs": [
        {
          "internalType": "contract HealthRiskPool",
          "name": "",
          "type": "address"
        }
      ],
      "stateMutability": "view",
      "type": "function"
    },
    {
      "inputs": [
        {
          "internalType": "address",
          "name": "",
          "type": "address"
        }
      ],
      "name": "healthcareProviders",
      "outputs": [
        {
          "internalType": "enum MembershipManager.ProviderStatus",
          "name": "status",
          "type": "uint8"
        },
        {
          "internalType": "bool",
          "name": "isRegistered",
          "type": "bool"
        }
      ],
      "stateMutability": "view",
      "type": "function"
    },
    {
      "inputs": [
        {
          "internalType": "address",
          "name": "user",
          "type": "address"
        }
      ],
      "name": "isActiveParticipant",
      "outputs": [
        {
          "internalType": "bool",
          "name": "",
          "type": "bool"
        }
      ],
      "stateMutability": "view",
      "type": "function"
    },
    {
      "inputs": [
        {
          "internalType": "address",
          "name": "provider",
          "type": "address"
        }
      ],
      "name": "isApprovedProvider",
      "outputs": [
        {
          "internalType": "bool",
          "name": "",
          "type": "bool"
        }
      ],
      "stateMutability": "view",
      "type": "function"
    },
    {
      "inputs": [
        {
          "internalType": "enum MembershipManager.Tier",
          "name": "",
          "type": "uint8"
        }
      ],
      "name": "monthlyFee",
      "outputs": [
        {
          "internalType": "uint256",
          "name": "",
          "type": "uint256"
        }
      ],
      "stateMutability": "view",
      "type": "function"
    },
    {
      "inputs": [
        {
          "internalType": "address",
          "name": "",
          "type": "address"
        }
      ],
      "name": "participants",
      "outputs": [
        {
          "internalType": "enum MembershipManager.Tier",
          "name": "tier",
          "type": "uint8"
        },
        {
          "internalType": "bool",
          "name": "isActive",
          "type": "bool"
        },
        {
          "internalType": "uint256",
          "name": "lastPaymentTimestamp",
          "type": "uint256"
        }
      ],
      "stateMutability": "view",
      "type": "function"
    },
    {
      "inputs": [],
      "name": "payMonthlyFee",
      "outputs": [],
      "stateMutability": "payable",
      "type": "function"
    },
    {
      "inputs": [],
      "name": "registerHealthcareProvider",
      "outputs": [],
      "stateMutability": "nonpayable",
      "type": "function"
    },
    {
      "inputs": [
        {
          "internalType": "enum MembershipManager.Tier",
          "name": "tier",
          "type": "uint8"
        }
      ],
      "name": "registerParticipant",
      "outputs": [],
      "stateMutability": "payable",
      "type": "function"
    },
    {
      "inputs": [
        {
          "internalType": "address",
          "name": "provider",
          "type": "address"
        }
      ],
      "name": "rejectHealthcareProvider",
      "outputs": [],
      "stateMutability": "nonpayable",
      "type": "function"
    },
    {
      "inputs": [
        {
          "internalType": "bytes32",
          "name": "role",
          "type": "bytes32"
        },
        {
          "internalType": "address",
          "name": "callerConfirmation",
          "type": "address"
        }
      ],
      "name": "renounceRole",
      "outputs": [],
      "stateMutability": "nonpayable",
      "type": "function"
    },
    {
      "inputs": [
        {
          "internalType": "bytes32",
          "name": "role",
          "type": "bytes32"
        },
        {
          "internalType": "address",
          "name": "account",
          "type": "address"
        }
      ],
      "name": "revokeRole",
      "outputs": [],
      "stateMutability": "nonpayable",
      "type": "function"
    },
    {
      "inputs": [
        {
          "internalType": "bytes4",
          "name": "interfaceId",
          "type": "bytes4"
        }
      ],
      "name": "supportsInterface",
      "outputs": [
        {
          "internalType": "bool",
          "name": "",
          "type": "bool"
        }
      ],
      "stateMutability": "view",
      "type": "function"
    },
    {
      "inputs": [
        {
          "internalType": "address",
          "name": "user",
          "type": "address"
        }
      ],
      "name": "updateMembershipStatus",
      "outputs": [],
      "stateMutability": "nonpayable",
      "type": "function"
    },
    {
      "stateMutability": "payable",
      "type": "receive"
    }
  ],
  "bytecode": "0x608060405234801561001057600080fd5b506040516128cc3803806128cc833981810160405281019061003291906103e2565b6100456000801b3361021060201b60201c565b506100767fa49807205ce4d355092ef5a8a18f56e8913cf4a201fbe287825b095693c217753361021060201b60201c565b5081600460006101000a81548173ffffffffffffffffffffffffffffffffffffffff021916908373ffffffffffffffffffffffffffffffffffffffff16021790555080600560006101000a81548173ffffffffffffffffffffffffffffffffffffffff021916908373ffffffffffffffffffffffffffffffffffffffff16021790555061010c6000801b8461021060201b60201c565b5061013d7fa49807205ce4d355092ef5a8a18f56e8913cf4a201fbe287825b095693c217758461021060201b60201c565b50662386f26fc100006003600080600281111561015d5761015c610435565b5b600281111561016f5761016e610435565b5b815260200190815260200160002081905550666a94d74f43000060036000600160028111156101a1576101a0610435565b5b60028111156101b3576101b2610435565b5b81526020019081526020016000208190555066b1a2bc2ec50000600360006002808111156101e4576101e3610435565b5b60028111156101f6576101f5610435565b5b815260200190815260200160002081905550505050610464565b6000610222838361030d60201b60201c565b61030257600160008085815260200190815260200160002060000160008473ffffffffffffffffffffffffffffffffffffffff1673ffffffffffffffffffffffffffffffffffffffff16815260200190815260200160002060006101000a81548160ff02191690831515021790555061029f61037760201b60201c565b73ffffffffffffffffffffffffffffffffffffffff168273ffffffffffffffffffffffffffffffffffffffff16847f2f8788117e7eff1d82e926ec794901d17c78024a50270940304540a733656f0d60405160405180910390a460019050610307565b600090505b92915050565b600080600084815260200190815260200160002060000160008373ffffffffffffffffffffffffffffffffffffffff1673ffffffffffffffffffffffffffffffffffffffff16815260200190815260200160002060009054906101000a900460ff16905092915050565b600033905090565b600080fd5b600073ffffffffffffffffffffffffffffffffffffffff82169050919050565b60006103af82610384565b9050919050565b6103bf816103a4565b81146103ca57600080fd5b50565b6000815190506103dc816103b6565b92915050565b6000806000606084860312156103fb576103fa61037f565b5b6000610409868287016103cd565b935050602061041a868287016103cd565b925050604061042b868287016103cd565b9150509250925092565b7f4e487b7100000000000000000000000000000000000000000000000000000000600052602160045260246000fd5b612459806104736000396000f3fe60806040526004361061016a5760003560e01c806391d14854116100d1578063c95811371161008a578063d547741f11610064578063d547741f14610542578063d899a5d81461056b578063f20685d514610587578063f6ba6678146105b257610171565b8063c9581137146104d2578063cb893e17146104fd578063d02938331461052657610171565b806391d148541461039c57806396cad0db146103d9578063a217fddf14610404578063a3bb58ff1461042f578063b408f89a14610458578063b8b1d4a91461049557610171565b80633c49fea6116101235780633c49fea6146102985780633e1cc60e146102c157806375b238fc146102fe5780637b63017a1461032957806382b79a13146103335780638617e6221461035e57610171565b806301ffc9a71461017657806309e69ede146101b3578063248a9ca3146101f25780632f2ff15d1461022f57806336568abe1461025857806338c88d8c1461028157610171565b3661017157005b600080fd5b34801561018257600080fd5b5061019d60048036038101906101989190611b9a565b6105dd565b6040516101aa9190611be2565b60405180910390f35b3480156101bf57600080fd5b506101da60048036038101906101d59190611c5b565b610657565b6040516101e993929190611d18565b60405180910390f35b3480156101fe57600080fd5b5061021960048036038101906102149190611d85565b61069b565b6040516102269190611dc1565b60405180910390f35b34801561023b57600080fd5b5061025660048036038101906102519190611ddc565b6106ba565b005b34801561026457600080fd5b5061027f600480360381019061027a9190611ddc565b6106dc565b005b34801561028d57600080fd5b50610296610757565b005b3480156102a457600080fd5b506102bf60048036038101906102ba9190611c5b565b6108e9565b005b3480156102cd57600080fd5b506102e860048036038101906102e39190611c5b565b610a42565b6040516102f59190611be2565b60405180910390f35b34801561030a57600080fd5b50610313610b1a565b6040516103209190611dc1565b60405180910390f35b610331610b3e565b005b34801561033f57600080fd5b50610348610d78565b6040516103559190611e7b565b60405180910390f35b34801561036a57600080fd5b5061038560048036038101906103809190611c5b565b610d9e565b604051610393929190611ede565b60405180910390f35b3480156103a857600080fd5b506103c360048036038101906103be9190611ddc565b610ddc565b6040516103d09190611be2565b60405180910390f35b3480156103e557600080fd5b506103ee610e46565b6040516103fb9190611f16565b60405180910390f35b34801561041057600080fd5b50610419610e6c565b6040516104269190611dc1565b60405180910390f35b34801561043b57600080fd5b5061045660048036038101906104519190611c5b565b610e73565b005b34801561046457600080fd5b5061047f600480360381019061047a9190611c5b565b610fd1565b60405161048c9190611be2565b60405180910390f35b3480156104a157600080fd5b506104bc60048036038101906104b79190611f56565b6110f9565b6040516104c99190611f83565b60405180910390f35b3480156104de57600080fd5b506104e7611111565b6040516104f49190611dc1565b60405180910390f35b34801561050957600080fd5b50610524600480360381019061051f9190611c5b565b611135565b005b610540600480360381019061053b9190611f56565b611268565b005b34801561054e57600080fd5b5061056960048036038101906105649190611ddc565b61144d565b005b61058560048036038101906105809190611f56565b61146f565b005b34801561059357600080fd5b5061059c611688565b6040516105a99190611f83565b60405180910390f35b3480156105be57600080fd5b506105c761168f565b6040516105d49190611dc1565b60405180910390f35b60007f7965db0b000000000000000000000000000000000000000000000000000000007bffffffffffffffffffffffffffffffffffffffffffffffffffffffff1916827bffffffffffffffffffffffffffffffffffffffffffffffffffffffff19161480610650575061064f826116b3565b5b9050919050565b60016020528060005260406000206000915090508060000160009054906101000a900460ff16908060000160019054906101000a900460ff16908060010154905083565b6000806000838152602001908152602001600020600101549050919050565b6106c38261069b565b6106cc8161171d565b6106d68383611731565b50505050565b6106e4611822565b73ffffffffffffffffffffffffffffffffffffffff168173ffffffffffffffffffffffffffffffffffffffff1614610748576040517f6697b23200000000000000000000000000000000000000000000000000000000815260040160405180910390fd5b610752828261182a565b505050565b600260003373ffffffffffffffffffffffffffffffffffffffff1673ffffffffffffffffffffffffffffffffffffffff16815260200190815260200160002060000160019054906101000a900460ff16156107e7576040517f08c379a00000000000000000000000000000000000000000000000000000000081526004016107de90611ffb565b60405180910390fd5b60405180604001604052806000600281111561080657610805611c88565b5b815260200160011515815250600260003373ffffffffffffffffffffffffffffffffffffffff1673ffffffffffffffffffffffffffffffffffffffff16815260200190815260200160002060008201518160000160006101000a81548160ff0219169083600281111561087c5761087b611c88565b5b021790555060208201518160000160016101000a81548160ff0219169083151502179055509050503373ffffffffffffffffffffffffffffffffffffffff167f1121553205bd7c4806a01fdeb3a8907dc944be98e03cb3bcb3481fe39ebc5e6b60405160405180910390a2565b6000600160008373ffffffffffffffffffffffffffffffffffffffff1673ffffffffffffffffffffffffffffffffffffffff16815260200190815260200160002090506000600360008360000160009054906101000a900460ff16600281111561095657610955611c88565b5b600281111561096857610967611c88565b5b815260200190815260200160002054116109b7576040517f08c379a00000000000000000000000000000000000000000000000000000000081526004016109ae90612067565b60405180910390fd5b620d2f0081600101546109ca91906120b6565b421115610a3e5760008160000160016101000a81548160ff0219169083151502179055508173ffffffffffffffffffffffffffffffffffffffff167f2df68c8ef108dfccb4ca687e197dc5adb8071dc1ffd6aa971d58934c4f11b2486000604051610a359190611be2565b60405180910390a25b5050565b6000600260008373ffffffffffffffffffffffffffffffffffffffff1673ffffffffffffffffffffffffffffffffffffffff16815260200190815260200160002060000160019054906101000a900460ff168015610b13575060016002811115610aaf57610aae611c88565b5b600260008473ffffffffffffffffffffffffffffffffffffffff1673ffffffffffffffffffffffffffffffffffffffff16815260200190815260200160002060000160009054906101000a900460ff166002811115610b1157610b10611c88565b5b145b9050919050565b7fa49807205ce4d355092ef5a8a18f56e8913cf4a201fbe287825b095693c2177581565b6000600160003373ffffffffffffffffffffffffffffffffffffffff1673ffffffffffffffffffffffffffffffffffffffff16815260200190815260200160002090506000600360008360000160009054906101000a900460ff166002811115610bab57610baa611c88565b5b6002811115610bbd57610bbc611c88565b5b81526020019081526020016000205411610c0c576040517f08c379a0000000000000000000000000000000000000000000000000000000008152600401610c0390612067565b60405180910390fd5b600360008260000160009054906101000a900460ff166002811115610c3457610c33611c88565b5b6002811115610c4657610c45611c88565b5b8152602001908152602001600020543414610c96576040517f08c379a0000000000000000000000000000000000000000000000000000000008152600401610c8d90612136565b60405180910390fd5b42816001018190555060018160000160016101000a81548160ff021916908315150217905550610cc53461191c565b3373ffffffffffffffffffffffffffffffffffffffff167fd141b61083322151cafb9da2f559ef751085c0b9a83aaaf4e3f6af43c30e45148260000160009054906101000a900460ff1634604051610d1e929190612156565b60405180910390a23373ffffffffffffffffffffffffffffffffffffffff167f2df68c8ef108dfccb4ca687e197dc5adb8071dc1ffd6aa971d58934c4f11b2486001604051610d6d9190611be2565b60405180910390a250565b600560009054906101000a900473ffffffffffffffffffffffffffffffffffffffff1681565b60026020528060005260406000206000915090508060000160009054906101000a900460ff16908060000160019054906101000a900460ff16905082565b600080600084815260200190815260200160002060000160008373ffffffffffffffffffffffffffffffffffffffff1673ffffffffffffffffffffffffffffffffffffffff16815260200190815260200160002060009054906101000a900460ff16905092915050565b600460009054906101000a900473ffffffffffffffffffffffffffffffffffffffff1681565b6000801b81565b7fa49807205ce4d355092ef5a8a18f56e8913cf4a201fbe287825b095693c21775610e9d8161171d565b6000600260008473ffffffffffffffffffffffffffffffffffffffff1673ffffffffffffffffffffffffffffffffffffffff16815260200190815260200160002090508060000160019054906101000a900460ff16610f31576040517f08c379a0000000000000000000000000000000000000000000000000000000008152600401610f2890612067565b60405180910390fd5b60018160000160006101000a81548160ff02191690836002811115610f5957610f58611c88565b5b0217905550610f887fc8f5b4140cca307cd927e59cbeea8291bffeee228fc677f0fa059aef7b4dd8d584611731565b508273ffffffffffffffffffffffffffffffffffffffff167ffca9545793d15ccd4925816bcbcd155c653f3afc6708292b0b375bc9a0f2bc1f60405160405180910390a2505050565b600080600160008473ffffffffffffffffffffffffffffffffffffffff1673ffffffffffffffffffffffffffffffffffffffff1681526020019081526020016000206040518060600160405290816000820160009054906101000a900460ff16600281111561104357611042611c88565b5b600281111561105557611054611c88565b5b81526020016000820160019054906101000a900460ff1615151515815260200160018201548152505090506000600360008360000151600281111561109d5761109c611c88565b5b60028111156110af576110ae611c88565b5b815260200190815260200160002054036110cd5760009150506110f4565b806020015180156110f05750620d2f0081604001516110ec91906120b6565b4211155b9150505b919050565b60036020528060005260406000206000915090505481565b7feca77a5bbbcf8baa6d8f93054311a3e6672f982247f67ba40cb896ecf1992aec81565b7fa49807205ce4d355092ef5a8a18f56e8913cf4a201fbe287825b095693c2177561115f8161171d565b6000600260008473ffffffffffffffffffffffffffffffffffffffff1673ffffffffffffffffffffffffffffffffffffffff16815260200190815260200160002090508060000160019054906101000a900460ff166111f3576040517f08c379a00000000000000000000000000000000000000000000000000000000081526004016111ea90612067565b60405180910390fd5b60028160000160006101000a81548160ff0219169083600281111561121b5761121a611c88565b5b02179055508273ffffffffffffffffffffffffffffffffffffffff167f043c809d831548df40f8eefe12d0b2c7d70da1b31b7646a96220a77b7e2b674160405160405180910390a2505050565b6000600160003373ffffffffffffffffffffffffffffffffffffffff1673ffffffffffffffffffffffffffffffffffffffff16815260200190815260200160002090506000600360008460028111156112c4576112c3611c88565b5b60028111156112d6576112d5611c88565b5b81526020019081526020016000205411611325576040517f08c379a000000000000000000000000000000000000000000000000000000000815260040161131c906121cb565b60405180910390fd5b6003600083600281111561133c5761133b611c88565b5b600281111561134e5761134d611c88565b5b815260200190815260200160002054341461139e576040517f08c379a000000000000000000000000000000000000000000000000000000000815260040161139590612136565b60405180910390fd5b818160000160006101000a81548160ff021916908360028111156113c5576113c4611c88565b5b021790555060018160000160016101000a81548160ff0219169083151502179055504281600101819055506113f93461191c565b3373ffffffffffffffffffffffffffffffffffffffff167fd141b61083322151cafb9da2f559ef751085c0b9a83aaaf4e3f6af43c30e45148334604051611441929190612156565b60405180910390a25050565b6114568261069b565b61145f8161171d565b611469838361182a565b50505050565b60006003600083600281111561148857611487611c88565b5b600281111561149a57611499611c88565b5b815260200190815260200160002054116114e9576040517f08c379a00000000000000000000000000000000000000000000000000000000081526004016114e0906121cb565b60405180910390fd5b60036000826002811115611500576114ff611c88565b5b600281111561151257611511611c88565b5b8152602001908152602001600020543414611562576040517f08c379a000000000000000000000000000000000000000000000000000000000815260040161155990612136565b60405180910390fd5b60405180606001604052808260028111156115805761157f611c88565b5b815260200160011515815260200142815250600160003373ffffffffffffffffffffffffffffffffffffffff1673ffffffffffffffffffffffffffffffffffffffff16815260200190815260200160002060008201518160000160006101000a81548160ff021916908360028111156115fc576115fb611c88565b5b021790555060208201518160000160016101000a81548160ff021916908315150217905550604082015181600101559050506116373461191c565b3373ffffffffffffffffffffffffffffffffffffffff167f806d89d78ee0f826f9fa2e75e6e53e4a91ee0f70688d2152fd4d107423f3da638260405161167d91906121eb565b60405180910390a250565b620d2f0081565b7fc8f5b4140cca307cd927e59cbeea8291bffeee228fc677f0fa059aef7b4dd8d581565b60007f01ffc9a7000000000000000000000000000000000000000000000000000000007bffffffffffffffffffffffffffffffffffffffffffffffffffffffff1916827bffffffffffffffffffffffffffffffffffffffffffffffffffffffff1916149050919050565b61172e81611729611822565b611aec565b50565b600061173d8383610ddc565b61181757600160008085815260200190815260200160002060000160008473ffffffffffffffffffffffffffffffffffffffff1673ffffffffffffffffffffffffffffffffffffffff16815260200190815260200160002060006101000a81548160ff0219169083151502179055506117b4611822565b73ffffffffffffffffffffffffffffffffffffffff168273ffffffffffffffffffffffffffffffffffffffff16847f2f8788117e7eff1d82e926ec794901d17c78024a50270940304540a733656f0d60405160405180910390a46001905061181c565b600090505b92915050565b600033905090565b60006118368383610ddc565b1561191157600080600085815260200190815260200160002060000160008473ffffffffffffffffffffffffffffffffffffffff1673ffffffffffffffffffffffffffffffffffffffff16815260200190815260200160002060006101000a81548160ff0219169083151502179055506118ae611822565b73ffffffffffffffffffffffffffffffffffffffff168273ffffffffffffffffffffffffffffffffffffffff16847ff6391f5c32d9c69d2a47ea670b442974b53935d1edc7fd64eb21e047a839171b60405160405180910390a460019050611916565b600090505b92915050565b6000606460058361192d9190612206565b6119379190612277565b90506000818361194791906122a8565b90506000600460009054906101000a900473ffffffffffffffffffffffffffffffffffffffff1673ffffffffffffffffffffffffffffffffffffffff16836040516119919061230d565b60006040518083038185875af1925050503d80600081146119ce576040519150601f19603f3d011682016040523d82523d6000602084013e6119d3565b606091505b5050905080611a17576040517f08c379a0000000000000000000000000000000000000000000000000000000008152600401611a0e9061236e565b60405180910390fd5b6000600560009054906101000a900473ffffffffffffffffffffffffffffffffffffffff1673ffffffffffffffffffffffffffffffffffffffff1683604051611a5f9061230d565b60006040518083038185875af1925050503d8060008114611a9c576040519150601f19603f3d011682016040523d82523d6000602084013e611aa1565b606091505b5050905080611ae5576040517f08c379a0000000000000000000000000000000000000000000000000000000008152600401611adc906123da565b60405180910390fd5b5050505050565b611af68282610ddc565b611b395780826040517fe2517d3f000000000000000000000000000000000000000000000000000000008152600401611b309291906123fa565b60405180910390fd5b5050565b600080fd5b60007fffffffff0000000000000000000000000000000000000000000000000000000082169050919050565b611b7781611b42565b8114611b8257600080fd5b50565b600081359050611b9481611b6e565b92915050565b600060208284031215611bb057611baf611b3d565b5b6000611bbe84828501611b85565b91505092915050565b60008115159050919050565b611bdc81611bc7565b82525050565b6000602082019050611bf76000830184611bd3565b92915050565b600073ffffffffffffffffffffffffffffffffffffffff82169050919050565b6000611c2882611bfd565b9050919050565b611c3881611c1d565b8114611c4357600080fd5b50565b600081359050611c5581611c2f565b92915050565b600060208284031215611c7157611c70611b3d565b5b6000611c7f84828501611c46565b91505092915050565b7f4e487b7100000000000000000000000000000000000000000000000000000000600052602160045260246000fd5b60038110611cc857611cc7611c88565b5b50565b6000819050611cd982611cb7565b919050565b6000611ce982611ccb565b9050919050565b611cf981611cde565b82525050565b6000819050919050565b611d1281611cff565b82525050565b6000606082019050611d2d6000830186611cf0565b611d3a6020830185611bd3565b611d476040830184611d09565b949350505050565b6000819050919050565b611d6281611d4f565b8114611d6d57600080fd5b50565b600081359050611d7f81611d59565b92915050565b600060208284031215611d9b57611d9a611b3d565b5b6000611da984828501611d70565b91505092915050565b611dbb81611d4f565b82525050565b6000602082019050611dd66000830184611db2565b92915050565b60008060408385031215611df357611df2611b3d565b5b6000611e0185828601611d70565b9250506020611e1285828601611c46565b9150509250929050565b6000819050919050565b6000611e41611e3c611e3784611bfd565b611e1c565b611bfd565b9050919050565b6000611e5382611e26565b9050919050565b6000611e6582611e48565b9050919050565b611e7581611e5a565b82525050565b6000602082019050611e906000830184611e6c565b92915050565b60038110611ea757611ea6611c88565b5b50565b6000819050611eb882611e96565b919050565b6000611ec882611eaa565b9050919050565b611ed881611ebd565b82525050565b6000604082019050611ef36000830185611ecf565b611f006020830184611bd3565b9392505050565b611f1081611c1d565b82525050565b6000602082019050611f2b6000830184611f07565b92915050565b60038110611f3e57600080fd5b50565b600081359050611f5081611f31565b92915050565b600060208284031215611f6c57611f6b611b3d565b5b6000611f7a84828501611f41565b91505092915050565b6000602082019050611f986000830184611d09565b92915050565b600082825260208201905092915050565b7f416c726561647920726567697374657265640000000000000000000000000000600082015250565b6000611fe5601283611f9e565b9150611ff082611faf565b602082019050919050565b6000602082019050818103600083015261201481611fd8565b9050919050565b7f4e6f742072656769737465726564000000000000000000000000000000000000600082015250565b6000612051600e83611f9e565b915061205c8261201b565b602082019050919050565b6000602082019050818103600083015261208081612044565b9050919050565b7f4e487b7100000000000000000000000000000000000000000000000000000000600052601160045260246000fd5b60006120c182611cff565b91506120cc83611cff565b92508282019050808211156120e4576120e3612087565b5b92915050565b7f496e636f7272656374207061796d656e74000000000000000000000000000000600082015250565b6000612120601183611f9e565b915061212b826120ea565b602082019050919050565b6000602082019050818103600083015261214f81612113565b9050919050565b600060408201905061216b6000830185611cf0565b6121786020830184611d09565b9392505050565b7f496e76616c696420746965720000000000000000000000000000000000000000600082015250565b60006121b5600c83611f9e565b91506121c08261217f565b602082019050919050565b600060208201905081810360008301526121e4816121a8565b9050919050565b60006020820190506122006000830184611cf0565b92915050565b600061221182611cff565b915061221c83611cff565b925082820261222a81611cff565b9150828204841483151761224157612240612087565b5b5092915050565b7f4e487b7100000000000000000000000000000000000000000000000000000000600052601260045260246000fd5b600061228282611cff565b915061228d83611cff565b92508261229d5761229c612248565b5b828204905092915050565b60006122b382611cff565b91506122be83611cff565b92508282039050818111156122d6576122d5612087565b5b92915050565b600081905092915050565b50565b60006122f76000836122dc565b9150612302826122e7565b600082019050919050565b6000612318826122ea565b9150819050919050565b7f41646d696e20666565207472616e73666572206661696c656400000000000000600082015250565b6000612358601983611f9e565b915061236382612322565b602082019050919050565b600060208201905081810360008301526123878161234b565b9050919050565b7f506f6f6c207472616e73666572206661696c6564000000000000000000000000600082015250565b60006123c4601483611f9e565b91506123cf8261238e565b602082019050919050565b600060208201905081810360008301526123f3816123b7565b9050919050565b600060408201905061240f6000830185611f07565b61241c6020830184611db2565b939250505056fea26469706673582212205e8cf98ebb21977c36d5a4bca6d06d73744a28becca98e128287a6136c33ff2464736f6c634300081c0033",
  "linkReferences": {},
  "deployedLinkReferences": {}
}